{
  "_format": "hh-sol-artifact-1",
  "contractName": "Fweb3MaticFaucet",
  "sourceName": "contracts/Fweb3MaticFaucet.sol",
  "abi": [
    {
      "inputs": [
        {
          "internalType": "uint256",
          "name": "_dripAmount",
          "type": "uint256"
        },
        {
          "internalType": "uint256",
          "name": "_decimals",
          "type": "uint256"
        },
        {
          "internalType": "uint256",
          "name": "timeout",
          "type": "uint256"
        },
        {
          "internalType": "bool",
          "name": "_singleUse",
          "type": "bool"
        },
        {
          "internalType": "contract IERC20",
          "name": "erc20RequiredToken",
          "type": "address"
        },
        {
          "internalType": "uint256",
          "name": "requiredFweb3ForFaucet",
          "type": "uint256"
        }
      ],
      "stateMutability": "nonpayable",
      "type": "constructor"
    },
    {
      "anonymous": false,
      "inputs": [
        {
          "indexed": true,
          "internalType": "address",
          "name": "previousOwner",
          "type": "address"
        },
        {
          "indexed": true,
          "internalType": "address",
          "name": "newOwner",
          "type": "address"
        }
      ],
      "name": "OwnershipTransferred",
      "type": "event"
    },
    {
      "anonymous": false,
      "inputs": [
        {
          "indexed": false,
          "internalType": "address",
          "name": "",
          "type": "address"
        },
        {
          "indexed": false,
          "internalType": "uint256",
          "name": "",
          "type": "uint256"
        }
      ],
      "name": "ReceivedEth",
      "type": "event"
    },
    {
      "inputs": [],
      "name": "decimals",
      "outputs": [
        {
          "internalType": "uint256",
          "name": "",
          "type": "uint256"
        }
      ],
      "stateMutability": "view",
      "type": "function"
    },
    {
      "inputs": [],
      "name": "dripAmount",
      "outputs": [
        {
          "internalType": "uint256",
          "name": "",
          "type": "uint256"
        }
      ],
      "stateMutability": "view",
      "type": "function"
    },
    {
      "inputs": [
        {
          "internalType": "address payable",
          "name": "to",
          "type": "address"
        }
      ],
      "name": "dripMatic",
      "outputs": [],
      "stateMutability": "nonpayable",
      "type": "function"
    },
    {
      "inputs": [],
      "name": "faucetDisabled",
      "outputs": [
        {
          "internalType": "bool",
          "name": "",
          "type": "bool"
        }
      ],
      "stateMutability": "view",
      "type": "function"
    },
    {
      "inputs": [],
      "name": "owner",
      "outputs": [
        {
          "internalType": "address",
          "name": "",
          "type": "address"
        }
      ],
      "stateMutability": "view",
      "type": "function"
    },
    {
      "inputs": [],
      "name": "renounceOwnership",
      "outputs": [],
      "stateMutability": "nonpayable",
      "type": "function"
    },
    {
      "inputs": [
        {
          "internalType": "bool",
          "name": "val",
          "type": "bool"
        }
      ],
      "name": "setDisabled",
      "outputs": [],
      "stateMutability": "nonpayable",
      "type": "function"
    },
    {
      "inputs": [
        {
          "internalType": "uint256",
          "name": "amount",
          "type": "uint256"
        },
        {
          "internalType": "uint256",
          "name": "_decimals",
          "type": "uint256"
        }
      ],
      "name": "setDripAmount",
      "outputs": [],
      "stateMutability": "nonpayable",
      "type": "function"
    },
    {
      "inputs": [
        {
          "internalType": "bool",
          "name": "shouldBeSingleUse",
          "type": "bool"
        }
      ],
      "name": "setSingleUse",
      "outputs": [],
      "stateMutability": "nonpayable",
      "type": "function"
    },
    {
      "inputs": [
        {
          "internalType": "uint256",
          "name": "timeout",
          "type": "uint256"
        }
      ],
      "name": "setTimeout",
      "outputs": [],
      "stateMutability": "nonpayable",
      "type": "function"
    },
    {
      "inputs": [],
      "name": "singleUse",
      "outputs": [
        {
          "internalType": "bool",
          "name": "",
          "type": "bool"
        }
      ],
      "stateMutability": "view",
      "type": "function"
    },
    {
      "inputs": [
        {
          "internalType": "address",
          "name": "newOwner",
          "type": "address"
        }
      ],
      "name": "transferOwnership",
      "outputs": [],
      "stateMutability": "nonpayable",
      "type": "function"
    },
    {
      "stateMutability": "payable",
      "type": "receive"
    }
  ],
  "bytecode": "0x60806040523480156200001157600080fd5b5060405162001b4338038062001b438339818101604052810190620000379190620002b7565b620000576200004b620000f560201b60201c565b620000fd60201b60201c565b84600a620000669190620004d6565b8662000073919062000527565b600381905550846004819055508360058190555082600660016101000a81548160ff02191690831515021790555081600160006101000a81548173ffffffffffffffffffffffffffffffffffffffff021916908373ffffffffffffffffffffffffffffffffffffffff1602179055508060028190555050505050505062000588565b600033905090565b60008060009054906101000a900473ffffffffffffffffffffffffffffffffffffffff169050816000806101000a81548173ffffffffffffffffffffffffffffffffffffffff021916908373ffffffffffffffffffffffffffffffffffffffff1602179055508173ffffffffffffffffffffffffffffffffffffffff168173ffffffffffffffffffffffffffffffffffffffff167f8be0079c531659141344cd1fd0a4f28419497f9722a3daafe3b4186f6b6457e060405160405180910390a35050565b600080fd5b6000819050919050565b620001db81620001c6565b8114620001e757600080fd5b50565b600081519050620001fb81620001d0565b92915050565b60008115159050919050565b620002188162000201565b81146200022457600080fd5b50565b60008151905062000238816200020d565b92915050565b600073ffffffffffffffffffffffffffffffffffffffff82169050919050565b60006200026b826200023e565b9050919050565b60006200027f826200025e565b9050919050565b620002918162000272565b81146200029d57600080fd5b50565b600081519050620002b18162000286565b92915050565b60008060008060008060c08789031215620002d757620002d6620001c1565b5b6000620002e789828a01620001ea565b9650506020620002fa89828a01620001ea565b95505060406200030d89828a01620001ea565b94505060606200032089828a0162000227565b93505060806200033389828a01620002a0565b92505060a06200034689828a01620001ea565b9150509295509295509295565b7f4e487b7100000000000000000000000000000000000000000000000000000000600052601160045260246000fd5b60008160011c9050919050565b6000808291508390505b6001851115620003e157808604811115620003b957620003b862000353565b5b6001851615620003c95780820291505b8081029050620003d98562000382565b945062000399565b94509492505050565b600082620003fc5760019050620004cf565b816200040c5760009050620004cf565b8160018114620004255760028114620004305762000466565b6001915050620004cf565b60ff84111562000445576200044462000353565b5b8360020a9150848211156200045f576200045e62000353565b5b50620004cf565b5060208310610133831016604e8410600b8410161715620004a05782820a9050838111156200049a576200049962000353565b5b620004cf565b620004af84848460016200038f565b92509050818404811115620004c957620004c862000353565b5b81810290505b9392505050565b6000620004e382620001c6565b9150620004f083620001c6565b92506200051f7fffffffffffffffffffffffffffffffffffffffffffffffffffffffffffffffff8484620003ea565b905092915050565b60006200053482620001c6565b91506200054183620001c6565b9250817fffffffffffffffffffffffffffffffffffffffffffffffffffffffffffffffff04831182151516156200057d576200057c62000353565b5b828202905092915050565b6115ab80620005986000396000f3fe6080604052600436106100ab5760003560e01c80638da5cb5b116100645780638da5cb5b146101da57806392eb0af414610205578063c58a34cc1461022e578063e28c817214610257578063e928890c14610280578063f2fde38b146102ab576100eb565b8063313ce567146100f057806335a1529b1461011b5780636c40bc15146101465780636c5a7d1e1461016f578063715018a61461019857806376e1032a146101af576100eb565b366100eb577f52a6cdf67c40ce333b3d846e4e143db87f71dd7935612a4cafcf6ba76047ca1f33346040516100e1929190610c2f565b60405180910390a1005b600080fd5b3480156100fc57600080fd5b506101056102d4565b6040516101129190610c58565b60405180910390f35b34801561012757600080fd5b506101306102da565b60405161013d9190610c58565b60405180910390f35b34801561015257600080fd5b5061016d60048036038101906101689190610ca4565b6102e0565b005b34801561017b57600080fd5b5061019660048036038101906101919190610d1c565b61037e565b005b3480156101a457600080fd5b506101ad610417565b005b3480156101bb57600080fd5b506101c461049f565b6040516101d19190610d58565b60405180910390f35b3480156101e657600080fd5b506101ef6104b2565b6040516101fc9190610d73565b60405180910390f35b34801561021157600080fd5b5061022c60048036038101906102279190610dcc565b6104db565b005b34801561023a57600080fd5b5061025560048036038101906102509190610df9565b6108df565b005b34801561026357600080fd5b5061027e60048036038101906102799190610d1c565b610965565b005b34801561028c57600080fd5b506102956109fe565b6040516102a29190610d58565b60405180910390f35b3480156102b757600080fd5b506102d260048036038101906102cd9190610e52565b610a11565b005b60045481565b60035481565b6102e8610b09565b73ffffffffffffffffffffffffffffffffffffffff166103066104b2565b73ffffffffffffffffffffffffffffffffffffffff161461035c576040517f08c379a000000000000000000000000000000000000000000000000000000000815260040161035390610edc565b60405180910390fd5b80600a610369919061105e565b8261037491906110a9565b6003819055505050565b610386610b09565b73ffffffffffffffffffffffffffffffffffffffff166103a46104b2565b73ffffffffffffffffffffffffffffffffffffffff16146103fa576040517f08c379a00000000000000000000000000000000000000000000000000000000081526004016103f190610edc565b60405180910390fd5b80600660006101000a81548160ff02191690831515021790555050565b61041f610b09565b73ffffffffffffffffffffffffffffffffffffffff1661043d6104b2565b73ffffffffffffffffffffffffffffffffffffffff1614610493576040517f08c379a000000000000000000000000000000000000000000000000000000000815260040161048a90610edc565b60405180910390fd5b61049d6000610b11565b565b600660019054906101000a900460ff1681565b60008060009054906101000a900473ffffffffffffffffffffffffffffffffffffffff16905090565b600660009054906101000a900460ff161561052b576040517f08c379a00000000000000000000000000000000000000000000000000000000081526004016105229061114f565b60405180910390fd5b600354471015610570576040517f08c379a0000000000000000000000000000000000000000000000000000000008152600401610567906111bb565b60405180910390fd5b600254600160009054906101000a900473ffffffffffffffffffffffffffffffffffffffff1673ffffffffffffffffffffffffffffffffffffffff166370a08231836040518263ffffffff1660e01b81526004016105ce919061123a565b60206040518083038186803b1580156105e657600080fd5b505afa1580156105fa573d6000803e3d6000fd5b505050506040513d601f19601f8201168201806040525081019061061e919061126a565b101561065f576040517f08c379a0000000000000000000000000000000000000000000000000000000008152600401610656906112e3565b60405180910390fd5b600660019054906101000a900460ff161561070257600760008273ffffffffffffffffffffffffffffffffffffffff1673ffffffffffffffffffffffffffffffffffffffff16815260200190815260200160002060009054906101000a900460ff1615610701576040517f08c379a00000000000000000000000000000000000000000000000000000000081526004016106f89061134f565b60405180910390fd5b5b42600860008373ffffffffffffffffffffffffffffffffffffffff1673ffffffffffffffffffffffffffffffffffffffff168152602001908152602001600020541115610784576040517f08c379a000000000000000000000000000000000000000000000000000000000815260040161077b906113bb565b60405180910390fd5b60008173ffffffffffffffffffffffffffffffffffffffff166003546040516107ac9061140c565b60006040518083038185875af1925050503d80600081146107e9576040519150601f19603f3d011682016040523d82523d6000602084013e6107ee565b606091505b5050905080610832576040517f08c379a00000000000000000000000000000000000000000000000000000000081526004016108299061146d565b60405180910390fd5b60055442610840919061148d565b600860008473ffffffffffffffffffffffffffffffffffffffff1673ffffffffffffffffffffffffffffffffffffffff168152602001908152602001600020819055506001600760008473ffffffffffffffffffffffffffffffffffffffff1673ffffffffffffffffffffffffffffffffffffffff16815260200190815260200160002060006101000a81548160ff0219169083151502179055505050565b6108e7610b09565b73ffffffffffffffffffffffffffffffffffffffff166109056104b2565b73ffffffffffffffffffffffffffffffffffffffff161461095b576040517f08c379a000000000000000000000000000000000000000000000000000000000815260040161095290610edc565b60405180910390fd5b8060058190555050565b61096d610b09565b73ffffffffffffffffffffffffffffffffffffffff1661098b6104b2565b73ffffffffffffffffffffffffffffffffffffffff16146109e1576040517f08c379a00000000000000000000000000000000000000000000000000000000081526004016109d890610edc565b60405180910390fd5b80600660016101000a81548160ff02191690831515021790555050565b600660009054906101000a900460ff1681565b610a19610b09565b73ffffffffffffffffffffffffffffffffffffffff16610a376104b2565b73ffffffffffffffffffffffffffffffffffffffff1614610a8d576040517f08c379a0000000000000000000000000000000000000000000000000000000008152600401610a8490610edc565b60405180910390fd5b600073ffffffffffffffffffffffffffffffffffffffff168173ffffffffffffffffffffffffffffffffffffffff161415610afd576040517f08c379a0000000000000000000000000000000000000000000000000000000008152600401610af490611555565b60405180910390fd5b610b0681610b11565b50565b600033905090565b60008060009054906101000a900473ffffffffffffffffffffffffffffffffffffffff169050816000806101000a81548173ffffffffffffffffffffffffffffffffffffffff021916908373ffffffffffffffffffffffffffffffffffffffff1602179055508173ffffffffffffffffffffffffffffffffffffffff168173ffffffffffffffffffffffffffffffffffffffff167f8be0079c531659141344cd1fd0a4f28419497f9722a3daafe3b4186f6b6457e060405160405180910390a35050565b600073ffffffffffffffffffffffffffffffffffffffff82169050919050565b6000610c0082610bd5565b9050919050565b610c1081610bf5565b82525050565b6000819050919050565b610c2981610c16565b82525050565b6000604082019050610c446000830185610c07565b610c516020830184610c20565b9392505050565b6000602082019050610c6d6000830184610c20565b92915050565b600080fd5b610c8181610c16565b8114610c8c57600080fd5b50565b600081359050610c9e81610c78565b92915050565b60008060408385031215610cbb57610cba610c73565b5b6000610cc985828601610c8f565b9250506020610cda85828601610c8f565b9150509250929050565b60008115159050919050565b610cf981610ce4565b8114610d0457600080fd5b50565b600081359050610d1681610cf0565b92915050565b600060208284031215610d3257610d31610c73565b5b6000610d4084828501610d07565b91505092915050565b610d5281610ce4565b82525050565b6000602082019050610d6d6000830184610d49565b92915050565b6000602082019050610d886000830184610c07565b92915050565b6000610d9982610bd5565b9050919050565b610da981610d8e565b8114610db457600080fd5b50565b600081359050610dc681610da0565b92915050565b600060208284031215610de257610de1610c73565b5b6000610df084828501610db7565b91505092915050565b600060208284031215610e0f57610e0e610c73565b5b6000610e1d84828501610c8f565b91505092915050565b610e2f81610bf5565b8114610e3a57600080fd5b50565b600081359050610e4c81610e26565b92915050565b600060208284031215610e6857610e67610c73565b5b6000610e7684828501610e3d565b91505092915050565b600082825260208201905092915050565b7f4f776e61626c653a2063616c6c6572206973206e6f7420746865206f776e6572600082015250565b6000610ec6602083610e7f565b9150610ed182610e90565b602082019050919050565b60006020820190508181036000830152610ef581610eb9565b9050919050565b7f4e487b7100000000000000000000000000000000000000000000000000000000600052601160045260246000fd5b60008160011c9050919050565b6000808291508390505b6001851115610f8257808604811115610f5e57610f5d610efc565b5b6001851615610f6d5780820291505b8081029050610f7b85610f2b565b9450610f42565b94509492505050565b600082610f9b5760019050611057565b81610fa95760009050611057565b8160018114610fbf5760028114610fc957610ff8565b6001915050611057565b60ff841115610fdb57610fda610efc565b5b8360020a915084821115610ff257610ff1610efc565b5b50611057565b5060208310610133831016604e8410600b841016171561102d5782820a90508381111561102857611027610efc565b5b611057565b61103a8484846001610f38565b9250905081840481111561105157611050610efc565b5b81810290505b9392505050565b600061106982610c16565b915061107483610c16565b92506110a17fffffffffffffffffffffffffffffffffffffffffffffffffffffffffffffffff8484610f8b565b905092915050565b60006110b482610c16565b91506110bf83610c16565b9250817fffffffffffffffffffffffffffffffffffffffffffffffffffffffffffffffff04831182151516156110f8576110f7610efc565b5b828202905092915050565b7f64697361626c6564000000000000000000000000000000000000000000000000600082015250565b6000611139600883610e7f565b915061114482611103565b602082019050919050565b600060208201905081810360008301526111688161112c565b9050919050565b7f6472790000000000000000000000000000000000000000000000000000000000600082015250565b60006111a5600383610e7f565b91506111b08261116f565b602082019050919050565b600060208201905081810360008301526111d481611198565b9050919050565b6000819050919050565b60006112006111fb6111f684610bd5565b6111db565b610bd5565b9050919050565b6000611212826111e5565b9050919050565b600061122482611207565b9050919050565b61123481611219565b82525050565b600060208201905061124f600083018461122b565b92915050565b60008151905061126481610c78565b92915050565b6000602082840312156112805761127f610c73565b5b600061128e84828501611255565b91505092915050565b7f6d697373696e6720667765623300000000000000000000000000000000000000600082015250565b60006112cd600d83610e7f565b91506112d882611297565b602082019050919050565b600060208201905081810360008301526112fc816112c0565b9050919050565b7f616c726561647920757365640000000000000000000000000000000000000000600082015250565b6000611339600c83610e7f565b915061134482611303565b602082019050919050565b600060208201905081810360008301526113688161132c565b9050919050565b7f746f6f20736f6f6e000000000000000000000000000000000000000000000000600082015250565b60006113a5600883610e7f565b91506113b08261136f565b602082019050919050565b600060208201905081810360008301526113d481611398565b9050919050565b600081905092915050565b50565b60006113f66000836113db565b9150611401826113e6565b600082019050919050565b6000611417826113e9565b9150819050919050565b7f73656e64206661696c6564000000000000000000000000000000000000000000600082015250565b6000611457600b83610e7f565b915061146282611421565b602082019050919050565b600060208201905081810360008301526114868161144a565b9050919050565b600061149882610c16565b91506114a383610c16565b9250827fffffffffffffffffffffffffffffffffffffffffffffffffffffffffffffffff038211156114d8576114d7610efc565b5b828201905092915050565b7f4f776e61626c653a206e6577206f776e657220697320746865207a65726f206160008201527f6464726573730000000000000000000000000000000000000000000000000000602082015250565b600061153f602683610e7f565b915061154a826114e3565b604082019050919050565b6000602082019050818103600083015261156e81611532565b905091905056fea2646970667358221220f2e702706f99599bd184d510faf36bcb8d8e54ad5238c15d4d2894f7ef54338364736f6c63430008090033",
  "linkReferences": {},
  "deployedLinkReferences": {}
}