{
  "_format": "hh-sol-artifact-1",
  "contractName": "EthFaucet",
  "sourceName": "contracts/EthFaucet.sol",
  "abi": [
    {
      "inputs": [
        {
          "internalType": "uint256",
          "name": "_dripAmount",
          "type": "uint256"
        },
        {
          "internalType": "uint32",
          "name": "_timeout",
          "type": "uint32"
        },
        {
          "internalType": "bool",
          "name": "_singleUse",
          "type": "bool"
        },
        {
          "internalType": "contract IERC20",
          "name": "_erc20RequiredToken",
          "type": "address"
        },
        {
          "internalType": "uint32",
          "name": "_erc20RequiredAmountToUseFaucet",
          "type": "uint32"
        }
      ],
      "stateMutability": "nonpayable",
      "type": "constructor"
    },
    {
      "anonymous": false,
      "inputs": [
        {
          "indexed": true,
          "internalType": "address",
          "name": "previousOwner",
          "type": "address"
        },
        {
          "indexed": true,
          "internalType": "address",
          "name": "newOwner",
          "type": "address"
        }
      ],
      "name": "OwnershipTransferred",
      "type": "event"
    },
    {
      "anonymous": false,
      "inputs": [
        {
          "indexed": false,
          "internalType": "address",
          "name": "",
          "type": "address"
        },
        {
          "indexed": false,
          "internalType": "uint256",
          "name": "",
          "type": "uint256"
        }
      ],
      "name": "ReceivedEth",
      "type": "event"
    },
    {
      "inputs": [
        {
          "internalType": "address payable",
          "name": "_to",
          "type": "address"
        }
      ],
      "name": "dripEth",
      "outputs": [],
      "stateMutability": "nonpayable",
      "type": "function"
    },
    {
      "inputs": [],
      "name": "faucetDisabled",
      "outputs": [
        {
          "internalType": "bool",
          "name": "",
          "type": "bool"
        }
      ],
      "stateMutability": "view",
      "type": "function"
    },
    {
      "inputs": [],
      "name": "owner",
      "outputs": [
        {
          "internalType": "address",
          "name": "",
          "type": "address"
        }
      ],
      "stateMutability": "view",
      "type": "function"
    },
    {
      "inputs": [],
      "name": "renounceOwnership",
      "outputs": [],
      "stateMutability": "nonpayable",
      "type": "function"
    },
    {
      "inputs": [
        {
          "internalType": "bool",
          "name": "_val",
          "type": "bool"
        }
      ],
      "name": "setDisabled",
      "outputs": [],
      "stateMutability": "nonpayable",
      "type": "function"
    },
    {
      "inputs": [
        {
          "internalType": "uint256",
          "name": "_amount",
          "type": "uint256"
        }
      ],
      "name": "setDripAmount",
      "outputs": [],
      "stateMutability": "nonpayable",
      "type": "function"
    },
    {
      "inputs": [
        {
          "internalType": "bool",
          "name": "_shouldBeSingleUse",
          "type": "bool"
        }
      ],
      "name": "setSingleUse",
      "outputs": [],
      "stateMutability": "nonpayable",
      "type": "function"
    },
    {
      "inputs": [
        {
          "internalType": "uint256",
          "name": "_timeout",
          "type": "uint256"
        }
      ],
      "name": "setTimeout",
      "outputs": [],
      "stateMutability": "nonpayable",
      "type": "function"
    },
    {
      "inputs": [
        {
          "internalType": "address",
          "name": "newOwner",
          "type": "address"
        }
      ],
      "name": "transferOwnership",
      "outputs": [],
      "stateMutability": "nonpayable",
      "type": "function"
    },
    {
      "stateMutability": "payable",
      "type": "receive"
    }
  ],
  "bytecode": "0x60806040523480156200001157600080fd5b5060405162001685380380620016858339818101604052810190620000379190620002e1565b620000576200004b620000de60201b60201c565b620000e660201b60201c565b846003819055508363ffffffff1660048190555082600560016101000a81548160ff02191690831515021790555081600160006101000a81548173ffffffffffffffffffffffffffffffffffffffff021916908373ffffffffffffffffffffffffffffffffffffffff1602179055508063ffffffff16600281905550505050505062000369565b600033905090565b60008060009054906101000a900473ffffffffffffffffffffffffffffffffffffffff169050816000806101000a81548173ffffffffffffffffffffffffffffffffffffffff021916908373ffffffffffffffffffffffffffffffffffffffff1602179055508173ffffffffffffffffffffffffffffffffffffffff168173ffffffffffffffffffffffffffffffffffffffff167f8be0079c531659141344cd1fd0a4f28419497f9722a3daafe3b4186f6b6457e060405160405180910390a35050565b600080fd5b6000819050919050565b620001c481620001af565b8114620001d057600080fd5b50565b600081519050620001e481620001b9565b92915050565b600063ffffffff82169050919050565b6200020581620001ea565b81146200021157600080fd5b50565b6000815190506200022581620001fa565b92915050565b60008115159050919050565b62000242816200022b565b81146200024e57600080fd5b50565b600081519050620002628162000237565b92915050565b600073ffffffffffffffffffffffffffffffffffffffff82169050919050565b6000620002958262000268565b9050919050565b6000620002a98262000288565b9050919050565b620002bb816200029c565b8114620002c757600080fd5b50565b600081519050620002db81620002b0565b92915050565b600080600080600060a086880312156200030057620002ff620001aa565b5b60006200031088828901620001d3565b9550506020620003238882890162000214565b9450506040620003368882890162000251565b93505060606200034988828901620002ca565b92505060806200035c8882890162000214565b9150509295509295909350565b61130c80620003796000396000f3fe60806040526004361061008a5760003560e01c80638da5cb5b116100595780638da5cb5b14610161578063c58a34cc1461018c578063e28c8172146101b5578063e928890c146101de578063f2fde38b14610209576100ca565b8063543f8c58146100cf5780636c5a7d1e146100f8578063715018a614610121578063785e323d14610138576100ca565b366100ca577f52a6cdf67c40ce333b3d846e4e143db87f71dd7935612a4cafcf6ba76047ca1f33346040516100c0929190610b69565b60405180910390a1005b600080fd5b3480156100db57600080fd5b506100f660048036038101906100f19190610bc3565b610232565b005b34801561010457600080fd5b5061011f600480360381019061011a9190610c28565b6102cb565b005b34801561012d57600080fd5b50610136610364565b005b34801561014457600080fd5b5061015f600480360381019061015a9190610c93565b6103ec565b005b34801561016d57600080fd5b506101766107f0565b6040516101839190610cc0565b60405180910390f35b34801561019857600080fd5b506101b360048036038101906101ae9190610bc3565b610819565b005b3480156101c157600080fd5b506101dc60048036038101906101d79190610c28565b61089f565b005b3480156101ea57600080fd5b506101f3610938565b6040516102009190610cea565b60405180910390f35b34801561021557600080fd5b50610230600480360381019061022b9190610d31565b61094b565b005b61023a610a43565b73ffffffffffffffffffffffffffffffffffffffff166102586107f0565b73ffffffffffffffffffffffffffffffffffffffff16146102ae576040517f08c379a00000000000000000000000000000000000000000000000000000000081526004016102a590610dbb565b60405180910390fd5b670de0b6b3a7640000816102c29190610e0a565b60038190555050565b6102d3610a43565b73ffffffffffffffffffffffffffffffffffffffff166102f16107f0565b73ffffffffffffffffffffffffffffffffffffffff1614610347576040517f08c379a000000000000000000000000000000000000000000000000000000000815260040161033e90610dbb565b60405180910390fd5b80600560006101000a81548160ff02191690831515021790555050565b61036c610a43565b73ffffffffffffffffffffffffffffffffffffffff1661038a6107f0565b73ffffffffffffffffffffffffffffffffffffffff16146103e0576040517f08c379a00000000000000000000000000000000000000000000000000000000081526004016103d790610dbb565b60405180910390fd5b6103ea6000610a4b565b565b600560009054906101000a900460ff161561043c576040517f08c379a000000000000000000000000000000000000000000000000000000000815260040161043390610eb0565b60405180910390fd5b600354471015610481576040517f08c379a000000000000000000000000000000000000000000000000000000000815260040161047890610f1c565b60405180910390fd5b600254600160009054906101000a900473ffffffffffffffffffffffffffffffffffffffff1673ffffffffffffffffffffffffffffffffffffffff166370a08231836040518263ffffffff1660e01b81526004016104df9190610f9b565b60206040518083038186803b1580156104f757600080fd5b505afa15801561050b573d6000803e3d6000fd5b505050506040513d601f19601f8201168201806040525081019061052f9190610fcb565b1015610570576040517f08c379a000000000000000000000000000000000000000000000000000000000815260040161056790611044565b60405180910390fd5b600560019054906101000a900460ff161561061357600660008273ffffffffffffffffffffffffffffffffffffffff1673ffffffffffffffffffffffffffffffffffffffff16815260200190815260200160002060009054906101000a900460ff1615610612576040517f08c379a0000000000000000000000000000000000000000000000000000000008152600401610609906110b0565b60405180910390fd5b5b42600760008373ffffffffffffffffffffffffffffffffffffffff1673ffffffffffffffffffffffffffffffffffffffff168152602001908152602001600020541115610695576040517f08c379a000000000000000000000000000000000000000000000000000000000815260040161068c9061111c565b60405180910390fd5b60008173ffffffffffffffffffffffffffffffffffffffff166003546040516106bd9061116d565b60006040518083038185875af1925050503d80600081146106fa576040519150601f19603f3d011682016040523d82523d6000602084013e6106ff565b606091505b5050905080610743576040517f08c379a000000000000000000000000000000000000000000000000000000000815260040161073a906111ce565b60405180910390fd5b6004544261075191906111ee565b600760008473ffffffffffffffffffffffffffffffffffffffff1673ffffffffffffffffffffffffffffffffffffffff168152602001908152602001600020819055506001600660008473ffffffffffffffffffffffffffffffffffffffff1673ffffffffffffffffffffffffffffffffffffffff16815260200190815260200160002060006101000a81548160ff0219169083151502179055505050565b60008060009054906101000a900473ffffffffffffffffffffffffffffffffffffffff16905090565b610821610a43565b73ffffffffffffffffffffffffffffffffffffffff1661083f6107f0565b73ffffffffffffffffffffffffffffffffffffffff1614610895576040517f08c379a000000000000000000000000000000000000000000000000000000000815260040161088c90610dbb565b60405180910390fd5b8060048190555050565b6108a7610a43565b73ffffffffffffffffffffffffffffffffffffffff166108c56107f0565b73ffffffffffffffffffffffffffffffffffffffff161461091b576040517f08c379a000000000000000000000000000000000000000000000000000000000815260040161091290610dbb565b60405180910390fd5b80600560016101000a81548160ff02191690831515021790555050565b600560009054906101000a900460ff1681565b610953610a43565b73ffffffffffffffffffffffffffffffffffffffff166109716107f0565b73ffffffffffffffffffffffffffffffffffffffff16146109c7576040517f08c379a00000000000000000000000000000000000000000000000000000000081526004016109be90610dbb565b60405180910390fd5b600073ffffffffffffffffffffffffffffffffffffffff168173ffffffffffffffffffffffffffffffffffffffff161415610a37576040517f08c379a0000000000000000000000000000000000000000000000000000000008152600401610a2e906112b6565b60405180910390fd5b610a4081610a4b565b50565b600033905090565b60008060009054906101000a900473ffffffffffffffffffffffffffffffffffffffff169050816000806101000a81548173ffffffffffffffffffffffffffffffffffffffff021916908373ffffffffffffffffffffffffffffffffffffffff1602179055508173ffffffffffffffffffffffffffffffffffffffff168173ffffffffffffffffffffffffffffffffffffffff167f8be0079c531659141344cd1fd0a4f28419497f9722a3daafe3b4186f6b6457e060405160405180910390a35050565b600073ffffffffffffffffffffffffffffffffffffffff82169050919050565b6000610b3a82610b0f565b9050919050565b610b4a81610b2f565b82525050565b6000819050919050565b610b6381610b50565b82525050565b6000604082019050610b7e6000830185610b41565b610b8b6020830184610b5a565b9392505050565b600080fd5b610ba081610b50565b8114610bab57600080fd5b50565b600081359050610bbd81610b97565b92915050565b600060208284031215610bd957610bd8610b92565b5b6000610be784828501610bae565b91505092915050565b60008115159050919050565b610c0581610bf0565b8114610c1057600080fd5b50565b600081359050610c2281610bfc565b92915050565b600060208284031215610c3e57610c3d610b92565b5b6000610c4c84828501610c13565b91505092915050565b6000610c6082610b0f565b9050919050565b610c7081610c55565b8114610c7b57600080fd5b50565b600081359050610c8d81610c67565b92915050565b600060208284031215610ca957610ca8610b92565b5b6000610cb784828501610c7e565b91505092915050565b6000602082019050610cd56000830184610b41565b92915050565b610ce481610bf0565b82525050565b6000602082019050610cff6000830184610cdb565b92915050565b610d0e81610b2f565b8114610d1957600080fd5b50565b600081359050610d2b81610d05565b92915050565b600060208284031215610d4757610d46610b92565b5b6000610d5584828501610d1c565b91505092915050565b600082825260208201905092915050565b7f4f776e61626c653a2063616c6c6572206973206e6f7420746865206f776e6572600082015250565b6000610da5602083610d5e565b9150610db082610d6f565b602082019050919050565b60006020820190508181036000830152610dd481610d98565b9050919050565b7f4e487b7100000000000000000000000000000000000000000000000000000000600052601160045260246000fd5b6000610e1582610b50565b9150610e2083610b50565b9250817fffffffffffffffffffffffffffffffffffffffffffffffffffffffffffffffff0483118215151615610e5957610e58610ddb565b5b828202905092915050565b7f64697361626c6564000000000000000000000000000000000000000000000000600082015250565b6000610e9a600883610d5e565b9150610ea582610e64565b602082019050919050565b60006020820190508181036000830152610ec981610e8d565b9050919050565b7f696e73756666696369656e742066756e64730000000000000000000000000000600082015250565b6000610f06601283610d5e565b9150610f1182610ed0565b602082019050919050565b60006020820190508181036000830152610f3581610ef9565b9050919050565b6000819050919050565b6000610f61610f5c610f5784610b0f565b610f3c565b610b0f565b9050919050565b6000610f7382610f46565b9050919050565b6000610f8582610f68565b9050919050565b610f9581610f7a565b82525050565b6000602082019050610fb06000830184610f8c565b92915050565b600081519050610fc581610b97565b92915050565b600060208284031215610fe157610fe0610b92565b5b6000610fef84828501610fb6565b91505092915050565b7f6d697373696e6720657263323000000000000000000000000000000000000000600082015250565b600061102e600d83610d5e565b915061103982610ff8565b602082019050919050565b6000602082019050818103600083015261105d81611021565b9050919050565b7f616c726561647920757365640000000000000000000000000000000000000000600082015250565b600061109a600c83610d5e565b91506110a582611064565b602082019050919050565b600060208201905081810360008301526110c98161108d565b9050919050565b7f746f6f20736f6f6e000000000000000000000000000000000000000000000000600082015250565b6000611106600883610d5e565b9150611111826110d0565b602082019050919050565b60006020820190508181036000830152611135816110f9565b9050919050565b600081905092915050565b50565b600061115760008361113c565b915061116282611147565b600082019050919050565b60006111788261114a565b9150819050919050565b7f73656e64206661696c6564000000000000000000000000000000000000000000600082015250565b60006111b8600b83610d5e565b91506111c382611182565b602082019050919050565b600060208201905081810360008301526111e7816111ab565b9050919050565b60006111f982610b50565b915061120483610b50565b9250827fffffffffffffffffffffffffffffffffffffffffffffffffffffffffffffffff0382111561123957611238610ddb565b5b828201905092915050565b7f4f776e61626c653a206e6577206f776e657220697320746865207a65726f206160008201527f6464726573730000000000000000000000000000000000000000000000000000602082015250565b60006112a0602683610d5e565b91506112ab82611244565b604082019050919050565b600060208201905081810360008301526112cf81611293565b905091905056fea264697066735822122029815e99f074f9bab9012209425821ba92022dc322b74deaa49e9e8e6450d42564736f6c63430008090033",
  "linkReferences": {},
  "deployedLinkReferences": {}
}