{
  "_format": "hh-sol-artifact-1",
  "contractName": "Fweb3TokenFaucet",
  "sourceName": "contracts/Fweb3TokenFaucet.sol",
  "abi": [
    {
      "inputs": [
        {
          "internalType": "contract ERC20",
          "name": "_erc20Token",
          "type": "address"
        },
        {
          "internalType": "uint256",
          "name": "_dripAmount",
          "type": "uint256"
        },
        {
          "internalType": "uint256",
          "name": "_decimals",
          "type": "uint256"
        },
        {
          "internalType": "uint256",
          "name": "_timeout",
          "type": "uint256"
        },
        {
          "internalType": "bool",
          "name": "_singleUse",
          "type": "bool"
        }
      ],
      "stateMutability": "nonpayable",
      "type": "constructor"
    },
    {
      "anonymous": false,
      "inputs": [
        {
          "indexed": true,
          "internalType": "address",
          "name": "previousOwner",
          "type": "address"
        },
        {
          "indexed": true,
          "internalType": "address",
          "name": "newOwner",
          "type": "address"
        }
      ],
      "name": "OwnershipTransferred",
      "type": "event"
    },
    {
      "inputs": [],
      "name": "decimals",
      "outputs": [
        {
          "internalType": "uint256",
          "name": "",
          "type": "uint256"
        }
      ],
      "stateMutability": "view",
      "type": "function"
    },
    {
      "inputs": [],
      "name": "dripAmount",
      "outputs": [
        {
          "internalType": "uint256",
          "name": "",
          "type": "uint256"
        }
      ],
      "stateMutability": "view",
      "type": "function"
    },
    {
      "inputs": [
        {
          "internalType": "address",
          "name": "to",
          "type": "address"
        }
      ],
      "name": "dripFweb3",
      "outputs": [],
      "stateMutability": "nonpayable",
      "type": "function"
    },
    {
      "inputs": [],
      "name": "erc20Token",
      "outputs": [
        {
          "internalType": "contract ERC20",
          "name": "",
          "type": "address"
        }
      ],
      "stateMutability": "view",
      "type": "function"
    },
    {
      "inputs": [],
      "name": "faucetDisabled",
      "outputs": [
        {
          "internalType": "bool",
          "name": "",
          "type": "bool"
        }
      ],
      "stateMutability": "view",
      "type": "function"
    },
    {
      "inputs": [],
      "name": "owner",
      "outputs": [
        {
          "internalType": "address",
          "name": "",
          "type": "address"
        }
      ],
      "stateMutability": "view",
      "type": "function"
    },
    {
      "inputs": [],
      "name": "renounceOwnership",
      "outputs": [],
      "stateMutability": "nonpayable",
      "type": "function"
    },
    {
      "inputs": [
        {
          "internalType": "bool",
          "name": "val",
          "type": "bool"
        }
      ],
      "name": "setDisableFaucet",
      "outputs": [],
      "stateMutability": "nonpayable",
      "type": "function"
    },
    {
      "inputs": [
        {
          "internalType": "uint256",
          "name": "amount",
          "type": "uint256"
        },
        {
          "internalType": "uint256",
          "name": "_decimals",
          "type": "uint256"
        }
      ],
      "name": "setDripAmount",
      "outputs": [],
      "stateMutability": "nonpayable",
      "type": "function"
    },
    {
      "inputs": [
        {
          "internalType": "bool",
          "name": "shouldBeSingleUse",
          "type": "bool"
        }
      ],
      "name": "setSingleUse",
      "outputs": [],
      "stateMutability": "nonpayable",
      "type": "function"
    },
    {
      "inputs": [
        {
          "internalType": "uint256",
          "name": "newTimeout",
          "type": "uint256"
        }
      ],
      "name": "setTimeout",
      "outputs": [],
      "stateMutability": "nonpayable",
      "type": "function"
    },
    {
      "inputs": [],
      "name": "singleUse",
      "outputs": [
        {
          "internalType": "bool",
          "name": "",
          "type": "bool"
        }
      ],
      "stateMutability": "view",
      "type": "function"
    },
    {
      "inputs": [],
      "name": "timeout",
      "outputs": [
        {
          "internalType": "uint256",
          "name": "",
          "type": "uint256"
        }
      ],
      "stateMutability": "view",
      "type": "function"
    },
    {
      "inputs": [
        {
          "internalType": "address",
          "name": "newOwner",
          "type": "address"
        }
      ],
      "name": "transferOwnership",
      "outputs": [],
      "stateMutability": "nonpayable",
      "type": "function"
    }
  ],
  "bytecode": "0x60806040523480156200001157600080fd5b5060405162001a2038038062001a208339818101604052810190620000379190620002af565b620000576200004b620000ed60201b60201c565b620000f560201b60201c565b84600160006101000a81548173ffffffffffffffffffffffffffffffffffffffff021916908373ffffffffffffffffffffffffffffffffffffffff16021790555082600a620000a79190620004ba565b84620000b491906200050b565b600281905550826003819055508160048190555080600560016101000a81548160ff02191690831515021790555050505050506200056c565b600033905090565b60008060009054906101000a900473ffffffffffffffffffffffffffffffffffffffff169050816000806101000a81548173ffffffffffffffffffffffffffffffffffffffff021916908373ffffffffffffffffffffffffffffffffffffffff1602179055508173ffffffffffffffffffffffffffffffffffffffff168173ffffffffffffffffffffffffffffffffffffffff167f8be0079c531659141344cd1fd0a4f28419497f9722a3daafe3b4186f6b6457e060405160405180910390a35050565b600080fd5b600073ffffffffffffffffffffffffffffffffffffffff82169050919050565b6000620001eb82620001be565b9050919050565b6000620001ff82620001de565b9050919050565b6200021181620001f2565b81146200021d57600080fd5b50565b600081519050620002318162000206565b92915050565b6000819050919050565b6200024c8162000237565b81146200025857600080fd5b50565b6000815190506200026c8162000241565b92915050565b60008115159050919050565b620002898162000272565b81146200029557600080fd5b50565b600081519050620002a9816200027e565b92915050565b600080600080600060a08688031215620002ce57620002cd620001b9565b5b6000620002de8882890162000220565b9550506020620002f1888289016200025b565b945050604062000304888289016200025b565b935050606062000317888289016200025b565b92505060806200032a8882890162000298565b9150509295509295909350565b7f4e487b7100000000000000000000000000000000000000000000000000000000600052601160045260246000fd5b60008160011c9050919050565b6000808291508390505b6001851115620003c5578086048111156200039d576200039c62000337565b5b6001851615620003ad5780820291505b8081029050620003bd8562000366565b94506200037d565b94509492505050565b600082620003e05760019050620004b3565b81620003f05760009050620004b3565b816001811462000409576002811462000414576200044a565b6001915050620004b3565b60ff84111562000429576200042862000337565b5b8360020a91508482111562000443576200044262000337565b5b50620004b3565b5060208310610133831016604e8410600b8410161715620004845782820a9050838111156200047e576200047d62000337565b5b620004b3565b62000493848484600162000373565b92509050818404811115620004ad57620004ac62000337565b5b81810290505b9392505050565b6000620004c78262000237565b9150620004d48362000237565b9250620005037fffffffffffffffffffffffffffffffffffffffffffffffffffffffffffffffff8484620003ce565b905092915050565b6000620005188262000237565b9150620005258362000237565b9250817fffffffffffffffffffffffffffffffffffffffffffffffffffffffffffffffff048311821515161562000561576200056062000337565b5b828202905092915050565b6114a4806200057c6000396000f3fe608060405234801561001057600080fd5b50600436106100ea5760003560e01c806376e1032a1161008c578063c58a34cc11610066578063c58a34cc14610201578063e28c81721461021d578063e928890c14610239578063f2fde38b14610257576100ea565b806376e1032a146101a75780638a13eea7146101c55780638da5cb5b146101e3576100ea565b806335a1529b116100c857806335a1529b146101455780636c40bc151461016357806370dea79a1461017f578063715018a61461019d576100ea565b80631d691fb5146100ef57806325fe628e1461010b578063313ce56714610127575b600080fd5b61010960048036038101906101049190610be6565b610273565b005b61012560048036038101906101209190610c71565b61030c565b005b61012f610712565b60405161013c9190610cb7565b60405180910390f35b61014d610718565b60405161015a9190610cb7565b60405180910390f35b61017d60048036038101906101789190610cfe565b61071e565b005b6101876107c3565b6040516101949190610cb7565b60405180910390f35b6101a56107c9565b005b6101af610851565b6040516101bc9190610d4d565b60405180910390f35b6101cd610864565b6040516101da9190610dc7565b60405180910390f35b6101eb61088a565b6040516101f89190610df1565b60405180910390f35b61021b60048036038101906102169190610e0c565b6108b3565b005b61023760048036038101906102329190610be6565b610939565b005b6102416109d2565b60405161024e9190610d4d565b60405180910390f35b610271600480360381019061026c9190610c71565b6109e5565b005b61027b610add565b73ffffffffffffffffffffffffffffffffffffffff1661029961088a565b73ffffffffffffffffffffffffffffffffffffffff16146102ef576040517f08c379a00000000000000000000000000000000000000000000000000000000081526004016102e690610e96565b60405180910390fd5b80600560006101000a81548160ff02191690831515021790555050565b600560009054906101000a900460ff161561035c576040517f08c379a000000000000000000000000000000000000000000000000000000000815260040161035390610f02565b60405180910390fd5b600254600160009054906101000a900473ffffffffffffffffffffffffffffffffffffffff1673ffffffffffffffffffffffffffffffffffffffff166370a08231306040518263ffffffff1660e01b81526004016103ba9190610df1565b60206040518083038186803b1580156103d257600080fd5b505afa1580156103e6573d6000803e3d6000fd5b505050506040513d601f19601f8201168201806040525081019061040a9190610f37565b101561044b576040517f08c379a000000000000000000000000000000000000000000000000000000000815260040161044290610fb0565b60405180910390fd5b600560019054906101000a900460ff16156104ee57600660008273ffffffffffffffffffffffffffffffffffffffff1673ffffffffffffffffffffffffffffffffffffffff16815260200190815260200160002060009054906101000a900460ff16156104ed576040517f08c379a00000000000000000000000000000000000000000000000000000000081526004016104e49061101c565b60405180910390fd5b5b42600760008373ffffffffffffffffffffffffffffffffffffffff1673ffffffffffffffffffffffffffffffffffffffff168152602001908152602001600020541115610570576040517f08c379a000000000000000000000000000000000000000000000000000000000815260040161056790611088565b60405180910390fd5b6000600160009054906101000a900473ffffffffffffffffffffffffffffffffffffffff1673ffffffffffffffffffffffffffffffffffffffff1663a9059cbb836002546040518363ffffffff1660e01b81526004016105d19291906110a8565b602060405180830381600087803b1580156105eb57600080fd5b505af11580156105ff573d6000803e3d6000fd5b505050506040513d601f19601f8201168201806040525081019061062391906110e6565b905080610665576040517f08c379a000000000000000000000000000000000000000000000000000000000815260040161065c9061115f565b60405180910390fd5b6004544261067391906111ae565b600760008473ffffffffffffffffffffffffffffffffffffffff1673ffffffffffffffffffffffffffffffffffffffff168152602001908152602001600020819055506001600660008473ffffffffffffffffffffffffffffffffffffffff1673ffffffffffffffffffffffffffffffffffffffff16815260200190815260200160002060006101000a81548160ff0219169083151502179055505050565b60035481565b60025481565b610726610add565b73ffffffffffffffffffffffffffffffffffffffff1661074461088a565b73ffffffffffffffffffffffffffffffffffffffff161461079a576040517f08c379a000000000000000000000000000000000000000000000000000000000815260040161079190610e96565b60405180910390fd5b8060038190555080600a6107ae9190611337565b826107b99190611382565b6002819055505050565b60045481565b6107d1610add565b73ffffffffffffffffffffffffffffffffffffffff166107ef61088a565b73ffffffffffffffffffffffffffffffffffffffff1614610845576040517f08c379a000000000000000000000000000000000000000000000000000000000815260040161083c90610e96565b60405180910390fd5b61084f6000610ae5565b565b600560019054906101000a900460ff1681565b600160009054906101000a900473ffffffffffffffffffffffffffffffffffffffff1681565b60008060009054906101000a900473ffffffffffffffffffffffffffffffffffffffff16905090565b6108bb610add565b73ffffffffffffffffffffffffffffffffffffffff166108d961088a565b73ffffffffffffffffffffffffffffffffffffffff161461092f576040517f08c379a000000000000000000000000000000000000000000000000000000000815260040161092690610e96565b60405180910390fd5b8060048190555050565b610941610add565b73ffffffffffffffffffffffffffffffffffffffff1661095f61088a565b73ffffffffffffffffffffffffffffffffffffffff16146109b5576040517f08c379a00000000000000000000000000000000000000000000000000000000081526004016109ac90610e96565b60405180910390fd5b80600560016101000a81548160ff02191690831515021790555050565b600560009054906101000a900460ff1681565b6109ed610add565b73ffffffffffffffffffffffffffffffffffffffff16610a0b61088a565b73ffffffffffffffffffffffffffffffffffffffff1614610a61576040517f08c379a0000000000000000000000000000000000000000000000000000000008152600401610a5890610e96565b60405180910390fd5b600073ffffffffffffffffffffffffffffffffffffffff168173ffffffffffffffffffffffffffffffffffffffff161415610ad1576040517f08c379a0000000000000000000000000000000000000000000000000000000008152600401610ac89061144e565b60405180910390fd5b610ada81610ae5565b50565b600033905090565b60008060009054906101000a900473ffffffffffffffffffffffffffffffffffffffff169050816000806101000a81548173ffffffffffffffffffffffffffffffffffffffff021916908373ffffffffffffffffffffffffffffffffffffffff1602179055508173ffffffffffffffffffffffffffffffffffffffff168173ffffffffffffffffffffffffffffffffffffffff167f8be0079c531659141344cd1fd0a4f28419497f9722a3daafe3b4186f6b6457e060405160405180910390a35050565b600080fd5b60008115159050919050565b610bc381610bae565b8114610bce57600080fd5b50565b600081359050610be081610bba565b92915050565b600060208284031215610bfc57610bfb610ba9565b5b6000610c0a84828501610bd1565b91505092915050565b600073ffffffffffffffffffffffffffffffffffffffff82169050919050565b6000610c3e82610c13565b9050919050565b610c4e81610c33565b8114610c5957600080fd5b50565b600081359050610c6b81610c45565b92915050565b600060208284031215610c8757610c86610ba9565b5b6000610c9584828501610c5c565b91505092915050565b6000819050919050565b610cb181610c9e565b82525050565b6000602082019050610ccc6000830184610ca8565b92915050565b610cdb81610c9e565b8114610ce657600080fd5b50565b600081359050610cf881610cd2565b92915050565b60008060408385031215610d1557610d14610ba9565b5b6000610d2385828601610ce9565b9250506020610d3485828601610ce9565b9150509250929050565b610d4781610bae565b82525050565b6000602082019050610d626000830184610d3e565b92915050565b6000819050919050565b6000610d8d610d88610d8384610c13565b610d68565b610c13565b9050919050565b6000610d9f82610d72565b9050919050565b6000610db182610d94565b9050919050565b610dc181610da6565b82525050565b6000602082019050610ddc6000830184610db8565b92915050565b610deb81610c33565b82525050565b6000602082019050610e066000830184610de2565b92915050565b600060208284031215610e2257610e21610ba9565b5b6000610e3084828501610ce9565b91505092915050565b600082825260208201905092915050565b7f4f776e61626c653a2063616c6c6572206973206e6f7420746865206f776e6572600082015250565b6000610e80602083610e39565b9150610e8b82610e4a565b602082019050919050565b60006020820190508181036000830152610eaf81610e73565b9050919050565b7f64697361626c6564000000000000000000000000000000000000000000000000600082015250565b6000610eec600883610e39565b9150610ef782610eb6565b602082019050919050565b60006020820190508181036000830152610f1b81610edf565b9050919050565b600081519050610f3181610cd2565b92915050565b600060208284031215610f4d57610f4c610ba9565b5b6000610f5b84828501610f22565b91505092915050565b7f6472790000000000000000000000000000000000000000000000000000000000600082015250565b6000610f9a600383610e39565b9150610fa582610f64565b602082019050919050565b60006020820190508181036000830152610fc981610f8d565b9050919050565b7f616c726561647920757365640000000000000000000000000000000000000000600082015250565b6000611006600c83610e39565b915061101182610fd0565b602082019050919050565b6000602082019050818103600083015261103581610ff9565b9050919050565b7f746f6f20736f6f6e000000000000000000000000000000000000000000000000600082015250565b6000611072600883610e39565b915061107d8261103c565b602082019050919050565b600060208201905081810360008301526110a181611065565b9050919050565b60006040820190506110bd6000830185610de2565b6110ca6020830184610ca8565b9392505050565b6000815190506110e081610bba565b92915050565b6000602082840312156110fc576110fb610ba9565b5b600061110a848285016110d1565b91505092915050565b7f73656e64206661696c0000000000000000000000000000000000000000000000600082015250565b6000611149600983610e39565b915061115482611113565b602082019050919050565b600060208201905081810360008301526111788161113c565b9050919050565b7f4e487b7100000000000000000000000000000000000000000000000000000000600052601160045260246000fd5b60006111b982610c9e565b91506111c483610c9e565b9250827fffffffffffffffffffffffffffffffffffffffffffffffffffffffffffffffff038211156111f9576111f861117f565b5b828201905092915050565b60008160011c9050919050565b6000808291508390505b600185111561125b578086048111156112375761123661117f565b5b60018516156112465780820291505b808102905061125485611204565b945061121b565b94509492505050565b6000826112745760019050611330565b816112825760009050611330565b816001811461129857600281146112a2576112d1565b6001915050611330565b60ff8411156112b4576112b361117f565b5b8360020a9150848211156112cb576112ca61117f565b5b50611330565b5060208310610133831016604e8410600b84101617156113065782820a9050838111156113015761130061117f565b5b611330565b6113138484846001611211565b9250905081840481111561132a5761132961117f565b5b81810290505b9392505050565b600061134282610c9e565b915061134d83610c9e565b925061137a7fffffffffffffffffffffffffffffffffffffffffffffffffffffffffffffffff8484611264565b905092915050565b600061138d82610c9e565b915061139883610c9e565b9250817fffffffffffffffffffffffffffffffffffffffffffffffffffffffffffffffff04831182151516156113d1576113d061117f565b5b828202905092915050565b7f4f776e61626c653a206e6577206f776e657220697320746865207a65726f206160008201527f6464726573730000000000000000000000000000000000000000000000000000602082015250565b6000611438602683610e39565b9150611443826113dc565b604082019050919050565b600060208201905081810360008301526114678161142b565b905091905056fea26469706673582212209f229044e67d8ca7076f8b1194b8ba809ba0c120f3337099b1b25b0bb872d79264736f6c63430008090033",
  "linkReferences": {},
  "deployedLinkReferences": {}
}