{
  "_format": "hh-sol-artifact-1",
  "contractName": "ERC20Faucet",
  "sourceName": "contracts/ERC20Faucet.sol",
  "abi": [
    {
      "inputs": [
        {
          "internalType": "contract ERC20",
          "name": "_erc20Token",
          "type": "address"
        },
        {
          "internalType": "uint256",
          "name": "_dripAmount",
          "type": "uint256"
        },
        {
          "internalType": "uint256",
          "name": "_timeout",
          "type": "uint256"
        },
        {
          "internalType": "bool",
          "name": "_singleUse",
          "type": "bool"
        }
      ],
      "stateMutability": "nonpayable",
      "type": "constructor"
    },
    {
      "anonymous": false,
      "inputs": [
        {
          "indexed": true,
          "internalType": "address",
          "name": "previousOwner",
          "type": "address"
        },
        {
          "indexed": true,
          "internalType": "address",
          "name": "newOwner",
          "type": "address"
        }
      ],
      "name": "OwnershipTransferred",
      "type": "event"
    },
    {
      "inputs": [
        {
          "internalType": "address",
          "name": "_to",
          "type": "address"
        }
      ],
      "name": "dripERC20",
      "outputs": [],
      "stateMutability": "nonpayable",
      "type": "function"
    },
    {
      "inputs": [],
      "name": "owner",
      "outputs": [
        {
          "internalType": "address",
          "name": "",
          "type": "address"
        }
      ],
      "stateMutability": "view",
      "type": "function"
    },
    {
      "inputs": [],
      "name": "renounceOwnership",
      "outputs": [],
      "stateMutability": "nonpayable",
      "type": "function"
    },
    {
      "inputs": [
        {
          "internalType": "bool",
          "name": "_val",
          "type": "bool"
        }
      ],
      "name": "setDisableFaucet",
      "outputs": [],
      "stateMutability": "nonpayable",
      "type": "function"
    },
    {
      "inputs": [
        {
          "internalType": "uint16",
          "name": "_amount",
          "type": "uint16"
        }
      ],
      "name": "setDripAmount",
      "outputs": [],
      "stateMutability": "nonpayable",
      "type": "function"
    },
    {
      "inputs": [
        {
          "internalType": "bool",
          "name": "_shouldBeSingleUse",
          "type": "bool"
        }
      ],
      "name": "setSingleUse",
      "outputs": [],
      "stateMutability": "nonpayable",
      "type": "function"
    },
    {
      "inputs": [
        {
          "internalType": "uint256",
          "name": "_timeout",
          "type": "uint256"
        }
      ],
      "name": "setTimeout",
      "outputs": [],
      "stateMutability": "nonpayable",
      "type": "function"
    },
    {
      "inputs": [
        {
          "internalType": "address",
          "name": "newOwner",
          "type": "address"
        }
      ],
      "name": "transferOwnership",
      "outputs": [],
      "stateMutability": "nonpayable",
      "type": "function"
    }
  ],
  "bytecode": "0x60806040523480156200001157600080fd5b50604051620012163803806200121683398181016040528101906200003791906200028c565b620000576200004b620000ca60201b60201c565b620000d260201b60201c565b83600160006101000a81548173ffffffffffffffffffffffffffffffffffffffff021916908373ffffffffffffffffffffffffffffffffffffffff160217905550826002819055508160038190555080600460016101000a81548160ff02191690831515021790555050505050620002fe565b600033905090565b60008060009054906101000a900473ffffffffffffffffffffffffffffffffffffffff169050816000806101000a81548173ffffffffffffffffffffffffffffffffffffffff021916908373ffffffffffffffffffffffffffffffffffffffff1602179055508173ffffffffffffffffffffffffffffffffffffffff168173ffffffffffffffffffffffffffffffffffffffff167f8be0079c531659141344cd1fd0a4f28419497f9722a3daafe3b4186f6b6457e060405160405180910390a35050565b600080fd5b600073ffffffffffffffffffffffffffffffffffffffff82169050919050565b6000620001c8826200019b565b9050919050565b6000620001dc82620001bb565b9050919050565b620001ee81620001cf565b8114620001fa57600080fd5b50565b6000815190506200020e81620001e3565b92915050565b6000819050919050565b620002298162000214565b81146200023557600080fd5b50565b60008151905062000249816200021e565b92915050565b60008115159050919050565b62000266816200024f565b81146200027257600080fd5b50565b60008151905062000286816200025b565b92915050565b60008060008060808587031215620002a957620002a862000196565b5b6000620002b987828801620001fd565b9450506020620002cc8782880162000238565b9350506040620002df8782880162000238565b9250506060620002f28782880162000275565b91505092959194509250565b610f08806200030e6000396000f3fe608060405234801561001057600080fd5b50600436106100885760003560e01c8063c01cae181161005b578063c01cae18146100ed578063c58a34cc14610109578063e28c817214610125578063f2fde38b1461014157610088565b80631d691fb51461008d578063715018a6146100a95780638da5cb5b146100b3578063a01b42d6146100d1575b600080fd5b6100a760048036038101906100a29190610968565b61015d565b005b6100b16101f6565b005b6100bb61027e565b6040516100c891906109d6565b60405180910390f35b6100eb60048036038101906100e69190610a2b565b6102a7565b005b61010760048036038101906101029190610a84565b610331565b005b610123600480360381019061011e9190610ae7565b610648565b005b61013f600480360381019061013a9190610968565b6106ce565b005b61015b60048036038101906101569190610a84565b610767565b005b61016561085f565b73ffffffffffffffffffffffffffffffffffffffff1661018361027e565b73ffffffffffffffffffffffffffffffffffffffff16146101d9576040517f08c379a00000000000000000000000000000000000000000000000000000000081526004016101d090610b71565b60405180910390fd5b80600460006101000a81548160ff02191690831515021790555050565b6101fe61085f565b73ffffffffffffffffffffffffffffffffffffffff1661021c61027e565b73ffffffffffffffffffffffffffffffffffffffff1614610272576040517f08c379a000000000000000000000000000000000000000000000000000000000815260040161026990610b71565b60405180910390fd5b61027c6000610867565b565b60008060009054906101000a900473ffffffffffffffffffffffffffffffffffffffff16905090565b6102af61085f565b73ffffffffffffffffffffffffffffffffffffffff166102cd61027e565b73ffffffffffffffffffffffffffffffffffffffff1614610323576040517f08c379a000000000000000000000000000000000000000000000000000000000815260040161031a90610b71565b60405180910390fd5b8061ffff1660028190555050565b600460009054906101000a900460ff1615610381576040517f08c379a000000000000000000000000000000000000000000000000000000000815260040161037890610bdd565b60405180910390fd5b600460019054906101000a900460ff161561042457600560008273ffffffffffffffffffffffffffffffffffffffff1673ffffffffffffffffffffffffffffffffffffffff16815260200190815260200160002060009054906101000a900460ff1615610423576040517f08c379a000000000000000000000000000000000000000000000000000000000815260040161041a90610c49565b60405180910390fd5b5b42600660008373ffffffffffffffffffffffffffffffffffffffff1673ffffffffffffffffffffffffffffffffffffffff1681526020019081526020016000205411156104a6576040517f08c379a000000000000000000000000000000000000000000000000000000000815260040161049d90610cb5565b60405180910390fd5b6000600160009054906101000a900473ffffffffffffffffffffffffffffffffffffffff1673ffffffffffffffffffffffffffffffffffffffff1663a9059cbb836002546040518363ffffffff1660e01b8152600401610507929190610ce4565b602060405180830381600087803b15801561052157600080fd5b505af1158015610535573d6000803e3d6000fd5b505050506040513d601f19601f820116820180604052508101906105599190610d22565b90508061059b576040517f08c379a000000000000000000000000000000000000000000000000000000000815260040161059290610d9b565b60405180910390fd5b600354426105a99190610dea565b600660008473ffffffffffffffffffffffffffffffffffffffff1673ffffffffffffffffffffffffffffffffffffffff168152602001908152602001600020819055506001600560008473ffffffffffffffffffffffffffffffffffffffff1673ffffffffffffffffffffffffffffffffffffffff16815260200190815260200160002060006101000a81548160ff0219169083151502179055505050565b61065061085f565b73ffffffffffffffffffffffffffffffffffffffff1661066e61027e565b73ffffffffffffffffffffffffffffffffffffffff16146106c4576040517f08c379a00000000000000000000000000000000000000000000000000000000081526004016106bb90610b71565b60405180910390fd5b8060038190555050565b6106d661085f565b73ffffffffffffffffffffffffffffffffffffffff166106f461027e565b73ffffffffffffffffffffffffffffffffffffffff161461074a576040517f08c379a000000000000000000000000000000000000000000000000000000000815260040161074190610b71565b60405180910390fd5b80600460016101000a81548160ff02191690831515021790555050565b61076f61085f565b73ffffffffffffffffffffffffffffffffffffffff1661078d61027e565b73ffffffffffffffffffffffffffffffffffffffff16146107e3576040517f08c379a00000000000000000000000000000000000000000000000000000000081526004016107da90610b71565b60405180910390fd5b600073ffffffffffffffffffffffffffffffffffffffff168173ffffffffffffffffffffffffffffffffffffffff161415610853576040517f08c379a000000000000000000000000000000000000000000000000000000000815260040161084a90610eb2565b60405180910390fd5b61085c81610867565b50565b600033905090565b60008060009054906101000a900473ffffffffffffffffffffffffffffffffffffffff169050816000806101000a81548173ffffffffffffffffffffffffffffffffffffffff021916908373ffffffffffffffffffffffffffffffffffffffff1602179055508173ffffffffffffffffffffffffffffffffffffffff168173ffffffffffffffffffffffffffffffffffffffff167f8be0079c531659141344cd1fd0a4f28419497f9722a3daafe3b4186f6b6457e060405160405180910390a35050565b600080fd5b60008115159050919050565b61094581610930565b811461095057600080fd5b50565b6000813590506109628161093c565b92915050565b60006020828403121561097e5761097d61092b565b5b600061098c84828501610953565b91505092915050565b600073ffffffffffffffffffffffffffffffffffffffff82169050919050565b60006109c082610995565b9050919050565b6109d0816109b5565b82525050565b60006020820190506109eb60008301846109c7565b92915050565b600061ffff82169050919050565b610a08816109f1565b8114610a1357600080fd5b50565b600081359050610a25816109ff565b92915050565b600060208284031215610a4157610a4061092b565b5b6000610a4f84828501610a16565b91505092915050565b610a61816109b5565b8114610a6c57600080fd5b50565b600081359050610a7e81610a58565b92915050565b600060208284031215610a9a57610a9961092b565b5b6000610aa884828501610a6f565b91505092915050565b6000819050919050565b610ac481610ab1565b8114610acf57600080fd5b50565b600081359050610ae181610abb565b92915050565b600060208284031215610afd57610afc61092b565b5b6000610b0b84828501610ad2565b91505092915050565b600082825260208201905092915050565b7f4f776e61626c653a2063616c6c6572206973206e6f7420746865206f776e6572600082015250565b6000610b5b602083610b14565b9150610b6682610b25565b602082019050919050565b60006020820190508181036000830152610b8a81610b4e565b9050919050565b7f647269702064697361626c656400000000000000000000000000000000000000600082015250565b6000610bc7600d83610b14565b9150610bd282610b91565b602082019050919050565b60006020820190508181036000830152610bf681610bba565b9050919050565b7f616c726561647920757365640000000000000000000000000000000000000000600082015250565b6000610c33600c83610b14565b9150610c3e82610bfd565b602082019050919050565b60006020820190508181036000830152610c6281610c26565b9050919050565b7f746f6f206561726c790000000000000000000000000000000000000000000000600082015250565b6000610c9f600983610b14565b9150610caa82610c69565b602082019050919050565b60006020820190508181036000830152610cce81610c92565b9050919050565b610cde81610ab1565b82525050565b6000604082019050610cf960008301856109c7565b610d066020830184610cd5565b9392505050565b600081519050610d1c8161093c565b92915050565b600060208284031215610d3857610d3761092b565b5b6000610d4684828501610d0d565b91505092915050565b7f73656e64206661696c0000000000000000000000000000000000000000000000600082015250565b6000610d85600983610b14565b9150610d9082610d4f565b602082019050919050565b60006020820190508181036000830152610db481610d78565b9050919050565b7f4e487b7100000000000000000000000000000000000000000000000000000000600052601160045260246000fd5b6000610df582610ab1565b9150610e0083610ab1565b9250827fffffffffffffffffffffffffffffffffffffffffffffffffffffffffffffffff03821115610e3557610e34610dbb565b5b828201905092915050565b7f4f776e61626c653a206e6577206f776e657220697320746865207a65726f206160008201527f6464726573730000000000000000000000000000000000000000000000000000602082015250565b6000610e9c602683610b14565b9150610ea782610e40565b604082019050919050565b60006020820190508181036000830152610ecb81610e8f565b905091905056fea2646970667358221220960a92575bbb7595bf6df788bca19a436270b864eee10071e4bc0577e42af94464736f6c63430008090033",
  "linkReferences": {},
  "deployedLinkReferences": {}
}